{
  "contractName": "Analytics",
  "abi": [
    {
      "constant": false,
      "inputs": [
        {
          "internalType": "address",
          "name": "_blogAddress",
          "type": "address"
        }
      ],
      "name": "setAddress",
      "outputs": [],
      "payable": false,
      "stateMutability": "nonpayable",
      "type": "function"
    },
    {
      "constant": true,
      "inputs": [],
      "name": "getBlogCount",
      "outputs": [
        {
          "internalType": "uint256",
          "name": "",
          "type": "uint256"
        }
      ],
      "payable": false,
      "stateMutability": "view",
      "type": "function"
    }
  ],
  "bytecode": "0x608060405234801561001057600080fd5b506102b6806100206000396000f3fe608060405234801561001057600080fd5b50600436106100365760003560e01c8063c8b71c951461003b578063e30081a014610059575b600080fd5b610043610075565b60405161005091906101ee565b60405180910390f35b610073600480360361006e919081019061018d565b610120565b005b6000806000809054906101000a900473ffffffffffffffffffffffffffffffffffffffff1690508073ffffffffffffffffffffffffffffffffffffffff1663c8b71c956040518163ffffffff1660e01b815260040160206040518083038186803b1580156100e257600080fd5b505afa1580156100f6573d6000803e3d6000fd5b505050506040513d601f19601f8201168201806040525061011a91908101906101b6565b91505090565b806000806101000a81548173ffffffffffffffffffffffffffffffffffffffff021916908373ffffffffffffffffffffffffffffffffffffffff16021790555050565b60008135905061017281610245565b92915050565b6000815190506101878161025c565b92915050565b60006020828403121561019f57600080fd5b60006101ad84828501610163565b91505092915050565b6000602082840312156101c857600080fd5b60006101d684828501610178565b91505092915050565b6101e88161023b565b82525050565b600060208201905061020360008301846101df565b92915050565b60006102148261021b565b9050919050565b600073ffffffffffffffffffffffffffffffffffffffff82169050919050565b6000819050919050565b61024e81610209565b811461025957600080fd5b50565b6102658161023b565b811461027057600080fd5b5056fea365627a7a723158207341e7c6da9f0fb6cdac9dddc760cda9804d66c36485723800a9cf9f1638c01c6c6578706572696d656e74616cf564736f6c63430005100040",
  "source": "pragma solidity ^0.5.0;\npragma experimental ABIEncoderV2;\n\n\ncontract Blog {\n  string public name = \"blog\";\n\n  uint public blogCount = 0;\n  mapping(uint => BlogItem) public blogs;\n  mapping(uint => address[]) public likedUsers;\n  mapping(uint => Comment[]) public comments;\n\n\n  struct BlogItem {\n    uint id;\n    string hash;\n    string description;\n    uint likesCount;\n    address payable author;\n    string fileType;\n  }\n\n  struct Comment {\n    address author;\n    string content;\n  }\n\n\n  // event BlogUpdated(\n  //   uint id,\n  //   string hash,\n  //   string description,\n  //   uint likesCount,\n  //   address payable author,\n  //   Comment[] comments,\n  //   string fileType\n  // );\n\n  // event BlogLiked(\n  //   uint id,\n  //   uint likesCount,\n  //   address payable author\n  // );\n\n  // event BlogCommented(\n  //   uint id,\n  //   Comment[] comments\n  // );\n\n\n\n  constructor() public {\n    name = \"Blog\";\n  }\n\n  function getBlogCount() public view returns(uint) {\n\n    return blogCount;\n    \n  }\n\n\n\n  function uploadBlog(string memory _fileHash, string memory _description,string memory _fileType) public {\n    require(bytes(_fileHash).length > 0);\n    require(bytes(_description).length > 0);\n    require(msg.sender!=address(0));\n    require(bytes(_fileType).length > 0);\n    blogCount ++;\n    blogs[blogCount] = BlogItem(blogCount, _fileHash, _description, 0, msg.sender,_fileType);\n    //emit BlogUpdated(blogCount, _fileHash, _description, 0, msg.sender,comments[blogCount],_fileType);\n  }\n\n  function commentBlog(uint _id,string memory _comment) public {\n    require(_id > 0 && _id <= blogCount);\n    require(bytes(_comment).length > 0);\n    comments[_id].push(Comment(msg.sender,_comment));\n    //emit BlogCommented(_id, comments[_id]);\n  }\n\n  function retrieveComments(uint _id) public view returns (Comment[] memory){\n    require(_id > 0 && _id <= blogCount);\n    return comments[_id];\n  }\n\n  function check(uint _id,address senderAddress) internal view returns(bool){\n    bool doesListContainElement = false;\n    for (uint i=0; i < likedUsers[_id].length; i++) {\n      if (senderAddress == likedUsers[_id][i]) {\n          doesListContainElement = true;\n          break;\n      }\n    } \n    return doesListContainElement;\n  }\n\n  function likeBlog(uint _id) public {\n    require(_id > 0 && _id <= blogCount);\n    require(!check(_id,msg.sender));\n    BlogItem memory _blog = blogs[_id];\n    _blog.likesCount = _blog.likesCount + 1;\n    blogs[_id] = _blog;\n    likedUsers[_id].push(msg.sender);\n    //emit BlogLiked(blogCount,_blog.likesCount,msg.sender);\n  }\n\n\n}\n\n\ncontract Analytics {\n\n    address blogContractAddress;\n\n    function setAddress(address _blogAddress) external{\n        blogContractAddress = _blogAddress;\n    }\n\n\n\n    function getBlogCount() public view returns(uint){\n\n      Blog blogContract = Blog(blogContractAddress);\n\n      return blogContract.getBlogCount();\n      \n    }\n\n}",
  "sourcePath": "/Users/I526737/Documents/Blockchain/src/contracts/Blog.sol",
  "compiler": {
    "name": "solc",
    "version": "0.5.16+commit.9c3226ce.Emscripten.clang"
  },
  "schemaVersion": "3.2.3",
  "updatedAt": "2022-11-30T09:24:57.616Z",
  "networkType": "ethereum",
  "devdoc": {
    "methods": {}
  },
  "userdoc": {
    "methods": {}
  }
}