{
  "contractName": "Blog",
  "abi": [
    {
      "inputs": [],
      "payable": false,
      "stateMutability": "nonpayable",
      "type": "constructor"
    },
    {
      "anonymous": false,
      "inputs": [
        {
          "indexed": false,
          "internalType": "uint256",
          "name": "id",
          "type": "uint256"
        },
        {
          "components": [
            {
              "internalType": "address",
              "name": "author",
              "type": "address"
            },
            {
              "internalType": "string",
              "name": "content",
              "type": "string"
            }
          ],
          "indexed": false,
          "internalType": "struct Blog.Comment[]",
          "name": "comments",
          "type": "tuple[]"
        }
      ],
      "name": "BlogCommented",
      "type": "event"
    },
    {
      "anonymous": false,
      "inputs": [
        {
          "indexed": false,
          "internalType": "uint256",
          "name": "id",
          "type": "uint256"
        },
        {
          "indexed": false,
          "internalType": "uint256",
          "name": "likesCount",
          "type": "uint256"
        },
        {
          "indexed": false,
          "internalType": "address payable",
          "name": "author",
          "type": "address"
        }
      ],
      "name": "BlogLiked",
      "type": "event"
    },
    {
      "anonymous": false,
      "inputs": [
        {
          "indexed": false,
          "internalType": "uint256",
          "name": "id",
          "type": "uint256"
        },
        {
          "indexed": false,
          "internalType": "string",
          "name": "hash",
          "type": "string"
        },
        {
          "indexed": false,
          "internalType": "string",
          "name": "description",
          "type": "string"
        },
        {
          "indexed": false,
          "internalType": "uint256",
          "name": "likesCount",
          "type": "uint256"
        },
        {
          "indexed": false,
          "internalType": "address payable",
          "name": "author",
          "type": "address"
        },
        {
          "components": [
            {
              "internalType": "address",
              "name": "author",
              "type": "address"
            },
            {
              "internalType": "string",
              "name": "content",
              "type": "string"
            }
          ],
          "indexed": false,
          "internalType": "struct Blog.Comment[]",
          "name": "comments",
          "type": "tuple[]"
        },
        {
          "indexed": false,
          "internalType": "string",
          "name": "fileType",
          "type": "string"
        }
      ],
      "name": "BlogUpdated",
      "type": "event"
    },
    {
      "constant": true,
      "inputs": [],
      "name": "blogCount",
      "outputs": [
        {
          "internalType": "uint256",
          "name": "",
          "type": "uint256"
        }
      ],
      "payable": false,
      "stateMutability": "view",
      "type": "function"
    },
    {
      "constant": true,
      "inputs": [
        {
          "internalType": "uint256",
          "name": "",
          "type": "uint256"
        }
      ],
      "name": "blogs",
      "outputs": [
        {
          "internalType": "uint256",
          "name": "id",
          "type": "uint256"
        },
        {
          "internalType": "string",
          "name": "hash",
          "type": "string"
        },
        {
          "internalType": "string",
          "name": "description",
          "type": "string"
        },
        {
          "internalType": "uint256",
          "name": "likesCount",
          "type": "uint256"
        },
        {
          "internalType": "address payable",
          "name": "author",
          "type": "address"
        },
        {
          "internalType": "string",
          "name": "fileType",
          "type": "string"
        }
      ],
      "payable": false,
      "stateMutability": "view",
      "type": "function"
    },
    {
      "constant": true,
      "inputs": [
        {
          "internalType": "uint256",
          "name": "",
          "type": "uint256"
        },
        {
          "internalType": "uint256",
          "name": "",
          "type": "uint256"
        }
      ],
      "name": "comments",
      "outputs": [
        {
          "internalType": "address",
          "name": "author",
          "type": "address"
        },
        {
          "internalType": "string",
          "name": "content",
          "type": "string"
        }
      ],
      "payable": false,
      "stateMutability": "view",
      "type": "function"
    },
    {
      "constant": true,
      "inputs": [
        {
          "internalType": "uint256",
          "name": "",
          "type": "uint256"
        },
        {
          "internalType": "uint256",
          "name": "",
          "type": "uint256"
        }
      ],
      "name": "likedUsers",
      "outputs": [
        {
          "internalType": "address",
          "name": "",
          "type": "address"
        }
      ],
      "payable": false,
      "stateMutability": "view",
      "type": "function"
    },
    {
      "constant": true,
      "inputs": [],
      "name": "name",
      "outputs": [
        {
          "internalType": "string",
          "name": "",
          "type": "string"
        }
      ],
      "payable": false,
      "stateMutability": "view",
      "type": "function"
    },
    {
      "constant": false,
      "inputs": [
        {
          "internalType": "string",
          "name": "_fileHash",
          "type": "string"
        },
        {
          "internalType": "string",
          "name": "_description",
          "type": "string"
        },
        {
          "internalType": "string",
          "name": "_fileType",
          "type": "string"
        }
      ],
      "name": "uploadBlog",
      "outputs": [],
      "payable": false,
      "stateMutability": "nonpayable",
      "type": "function"
    },
    {
      "constant": false,
      "inputs": [
        {
          "internalType": "uint256",
          "name": "_id",
          "type": "uint256"
        },
        {
          "internalType": "string",
          "name": "_comment",
          "type": "string"
        }
      ],
      "name": "commentBlog",
      "outputs": [],
      "payable": false,
      "stateMutability": "nonpayable",
      "type": "function"
    },
    {
      "constant": false,
      "inputs": [
        {
          "internalType": "uint256",
          "name": "_id",
          "type": "uint256"
        }
      ],
      "name": "likeBlog",
      "outputs": [],
      "payable": false,
      "stateMutability": "nonpayable",
      "type": "function"
    }
  ],
  "bytecode": "0x60806040526040518060400160405280600481526020017f626c6f67000000000000000000000000000000000000000000000000000000008152506000908051906020019062000051929190620000b9565b5060006001553480156200006457600080fd5b506040518060400160405280600481526020017f426c6f670000000000000000000000000000000000000000000000000000000081525060009080519060200190620000b2929190620000b9565b5062000168565b828054600181600116156101000203166002900490600052602060002090601f016020900481019282601f10620000fc57805160ff19168380011785556200012d565b828001600101855582156200012d579182015b828111156200012c5782518255916020019190600101906200010f565b5b5090506200013c919062000140565b5090565b6200016591905b808211156200016157600081600090555060010162000147565b5090565b90565b6116dd80620001786000396000f3fe608060405234801561001057600080fd5b50600436106100885760003560e01c806380f052d81161005b57806380f052d814610113578063e882429914610148578063eb22e05514610166578063fc6c776f1461018257610088565b806306fdde031461008d57806331825f30146100ab5780634308c44a146100c75780634db64df4146100e3575b600080fd5b6100956101b3565b6040516100a29190611300565b60405180910390f35b6100c560048036036100c09190810190610fdf565b610251565b005b6100e160048036036100dc9190810190610f48565b61068e565b005b6100fd60048036036100f8919081019061105c565b610873565b60405161010a91906112b5565b60405180910390f35b61012d60048036036101289190810190610fdf565b6108be565b60405161013f969594939291906113f8565b60405180910390f35b610150610ae2565b60405161015d9190611322565b60405180910390f35b610180600480360361017b9190810190611008565b610ae8565b005b61019c6004803603610197919081019061105c565b610c30565b6040516101aa9291906112d0565b60405180910390f35b60008054600181600116156101000203166002900480601f0160208091040260200160405190810160405280929190818152602001828054600181600116156101000203166002900480156102495780601f1061021e57610100808354040283529160200191610249565b820191906000526020600020905b81548152906001019060200180831161022c57829003601f168201915b505050505081565b60008111801561026357506001548111155b61026c57600080fd5b6102768133610d26565b1561028057600080fd5b610288610dee565b600260008381526020019081526020016000206040518060c001604052908160008201548152602001600182018054600181600116156101000203166002900480601f0160208091040260200160405190810160405280929190818152602001828054600181600116156101000203166002900480156103495780601f1061031e57610100808354040283529160200191610349565b820191906000526020600020905b81548152906001019060200180831161032c57829003601f168201915b50505050508152602001600282018054600181600116156101000203166002900480601f0160208091040260200160405190810160405280929190818152602001828054600181600116156101000203166002900480156103eb5780601f106103c0576101008083540402835291602001916103eb565b820191906000526020600020905b8154815290600101906020018083116103ce57829003601f168201915b50505050508152602001600382015481526020016004820160009054906101000a900473ffffffffffffffffffffffffffffffffffffffff1673ffffffffffffffffffffffffffffffffffffffff1673ffffffffffffffffffffffffffffffffffffffff168152602001600582018054600181600116156101000203166002900480601f0160208091040260200160405190810160405280929190818152602001828054600181600116156101000203166002900480156104ed5780601f106104c2576101008083540402835291602001916104ed565b820191906000526020600020905b8154815290600101906020018083116104d057829003601f168201915b505050505081525050905060018160600151018160600181815250508060026000848152602001908152602001600020600082015181600001556020820151816001019080519060200190610543929190610e3a565b506040820151816002019080519060200190610560929190610e3a565b506060820151816003015560808201518160040160006101000a81548173ffffffffffffffffffffffffffffffffffffffff021916908373ffffffffffffffffffffffffffffffffffffffff16021790555060a08201518160050190805190602001906105ce929190610e3a565b50905050600360008381526020019081526020016000203390806001815401808255809150509060018203906000526020600020016000909192909190916101000a81548173ffffffffffffffffffffffffffffffffffffffff021916908373ffffffffffffffffffffffffffffffffffffffff160217905550507f078fb7d2d246dd5c30cd5f79150744cc46ddab1e9f56372306e88856790b1b646001548260600151336040516106829392919061146e565b60405180910390a15050565b600083511161069c57600080fd5b60008251116106aa57600080fd5b600073ffffffffffffffffffffffffffffffffffffffff163373ffffffffffffffffffffffffffffffffffffffff1614156106e457600080fd5b60008151116106f257600080fd5b6001600081548092919060010191905055506040518060c001604052806001548152602001848152602001838152602001600081526020013373ffffffffffffffffffffffffffffffffffffffff16815260200182815250600260006001548152602001908152602001600020600082015181600001556020820151816001019080519060200190610785929190610e3a565b5060408201518160020190805190602001906107a2929190610e3a565b506060820151816003015560808201518160040160006101000a81548173ffffffffffffffffffffffffffffffffffffffff021916908373ffffffffffffffffffffffffffffffffffffffff16021790555060a0820151816005019080519060200190610810929190610e3a565b509050507febb4721a7e91319deab544415ece2c4513e31b9a54a98bc58cb79d13d3d63952600154848460003360046000600154815260200190815260200160002087604051610866979695949392919061136d565b60405180910390a1505050565b6003602052816000526040600020818154811061088c57fe5b906000526020600020016000915091509054906101000a900473ffffffffffffffffffffffffffffffffffffffff1681565b6002602052806000526040600020600091509050806000015490806001018054600181600116156101000203166002900480601f0160208091040260200160405190810160405280929190818152602001828054600181600116156101000203166002900480156109705780601f1061094557610100808354040283529160200191610970565b820191906000526020600020905b81548152906001019060200180831161095357829003601f168201915b505050505090806002018054600181600116156101000203166002900480601f016020809104026020016040519081016040528092919081815260200182805460018160011615610100020316600290048015610a0e5780601f106109e357610100808354040283529160200191610a0e565b820191906000526020600020905b8154815290600101906020018083116109f157829003601f168201915b5050505050908060030154908060040160009054906101000a900473ffffffffffffffffffffffffffffffffffffffff1690806005018054600181600116156101000203166002900480601f016020809104026020016040519081016040528092919081815260200182805460018160011615610100020316600290048015610ad85780601f10610aad57610100808354040283529160200191610ad8565b820191906000526020600020905b815481529060010190602001808311610abb57829003601f168201915b5050505050905086565b60015481565b600082118015610afa57506001548211155b610b0357600080fd5b6000815111610b1157600080fd5b6004600083815260200190815260200160002060405180604001604052803373ffffffffffffffffffffffffffffffffffffffff168152602001838152509080600181540180825580915050906001820390600052602060002090600202016000909192909190915060008201518160000160006101000a81548173ffffffffffffffffffffffffffffffffffffffff021916908373ffffffffffffffffffffffffffffffffffffffff1602179055506020820151816001019080519060200190610bdd929190610e3a565b505050507f8d145b93d9ce69758117b847010305c6203e15545dee55bedaea72365dcc9f618260046000858152602001908152602001600020604051610c2492919061133d565b60405180910390a15050565b60046020528160005260406000208181548110610c4957fe5b9060005260206000209060020201600091509150508060000160009054906101000a900473ffffffffffffffffffffffffffffffffffffffff1690806001018054600181600116156101000203166002900480601f016020809104026020016040519081016040528092919081815260200182805460018160011615610100020316600290048015610d1c5780601f10610cf157610100808354040283529160200191610d1c565b820191906000526020600020905b815481529060010190602001808311610cff57829003601f168201915b5050505050905082565b6000806000905060008090505b6003600086815260200190815260200160002080549050811015610de357600360008681526020019081526020016000208181548110610d6f57fe5b9060005260206000200160009054906101000a900473ffffffffffffffffffffffffffffffffffffffff1673ffffffffffffffffffffffffffffffffffffffff168473ffffffffffffffffffffffffffffffffffffffff161415610dd65760019150610de3565b8080600101915050610d33565b508091505092915050565b6040518060c0016040528060008152602001606081526020016060815260200160008152602001600073ffffffffffffffffffffffffffffffffffffffff168152602001606081525090565b828054600181600116156101000203166002900490600052602060002090601f016020900481019282601f10610e7b57805160ff1916838001178555610ea9565b82800160010185558215610ea9579182015b82811115610ea8578251825591602001919060010190610e8d565b5b509050610eb69190610eba565b5090565b610edc91905b80821115610ed8576000816000905550600101610ec0565b5090565b90565b600082601f830112610ef057600080fd5b8135610f03610efe826114d2565b6114a5565b91508082526020830160208301858383011115610f1f57600080fd5b610f2a838284611609565b50505092915050565b600081359050610f4281611683565b92915050565b600080600060608486031215610f5d57600080fd5b600084013567ffffffffffffffff811115610f7757600080fd5b610f8386828701610edf565b935050602084013567ffffffffffffffff811115610fa057600080fd5b610fac86828701610edf565b925050604084013567ffffffffffffffff811115610fc957600080fd5b610fd586828701610edf565b9150509250925092565b600060208284031215610ff157600080fd5b6000610fff84828501610f33565b91505092915050565b6000806040838503121561101b57600080fd5b600061102985828601610f33565b925050602083013567ffffffffffffffff81111561104657600080fd5b61105285828601610edf565b9150509250929050565b6000806040838503121561106f57600080fd5b600061107d85828601610f33565b925050602061108e85828601610f33565b9150509250929050565b60006110a4838361125d565b905092915050565b6110b5816115bb565b82525050565b6110c4816115a9565b82525050565b6110d3816115a9565b82525050565b60006110e482611528565b6110ee8185611556565b935083602082028501611100856114fe565b8060005b8581101561113b5784840389528161111c8582611098565b945061112783611549565b925060208a01995050600181019050611104565b50829750879550505050505092915050565b611156816115f7565b82525050565b60006111678261153e565b6111718185611578565b9350611181818560208601611618565b61118a81611665565b840191505092915050565b60006111a082611533565b6111aa8185611578565b93506111ba818560208601611618565b6111c381611665565b840191505092915050565b6000815460018116600081146111eb576001811461121157611255565b607f60028304166111fc8187611567565b955060ff198316865260208601935050611255565b6002820461121f8187611567565b955061122a85611513565b60005b8281101561124c5781548189015260018201915060208101905061122d565b80880195505050505b505092915050565b60006040830160008084015490506112748161164b565b61128160008701826110bb565b5060018401858303602087015261129883826111ce565b925050819250505092915050565b6112af816115ed565b82525050565b60006020820190506112ca60008301846110ca565b92915050565b60006040820190506112e560008301856110ca565b81810360208301526112f78184611195565b90509392505050565b6000602082019050818103600083015261131a8184611195565b905092915050565b600060208201905061133760008301846112a6565b92915050565b600060408201905061135260008301856112a6565b818103602083015261136481846110d9565b90509392505050565b600060e082019050611382600083018a6112a6565b8181036020830152611394818961115c565b905081810360408301526113a8818861115c565b90506113b7606083018761114d565b6113c460808301866110ac565b81810360a08301526113d681856110d9565b905081810360c08301526113ea818461115c565b905098975050505050505050565b600060c08201905061140d60008301896112a6565b818103602083015261141f8188611195565b905081810360408301526114338187611195565b905061144260608301866112a6565b61144f60808301856110ac565b81810360a08301526114618184611195565b9050979650505050505050565b600060608201905061148360008301866112a6565b61149060208301856112a6565b61149d60408301846110ac565b949350505050565b6000604051905081810181811067ffffffffffffffff821117156114c857600080fd5b8060405250919050565b600067ffffffffffffffff8211156114e957600080fd5b601f19601f8301169050602081019050919050565b60008190508160005260206000209050919050565b60008190508160005260206000209050919050565b600081549050919050565b600081519050919050565b600081519050919050565b6000600282019050919050565b600082825260208201905092915050565b600082825260208201905092915050565b600082825260208201905092915050565b600073ffffffffffffffffffffffffffffffffffffffff82169050919050565b60006115b4826115cd565b9050919050565b60006115c6826115cd565b9050919050565b600073ffffffffffffffffffffffffffffffffffffffff82169050919050565b6000819050919050565b6000611602826115ed565b9050919050565b82818337600083830152505050565b60005b8381101561163657808201518184015260208101905061161b565b83811115611645576000848401525b50505050565b600061165e61165983611676565b611589565b9050919050565b6000601f19601f8301169050919050565b60008160001c9050919050565b61168c816115ed565b811461169757600080fd5b5056fea365627a7a72315820adf880c94c2da9e11cf4ca740f79adc1233a0bff2f50175ed06d8c34844e3c586c6578706572696d656e74616cf564736f6c63430005100040",
  "source": "pragma solidity ^0.5.0;\npragma experimental ABIEncoderV2;\n\n\ncontract Blog {\n  string public name = \"blog\";\n\n  uint public blogCount = 0;\n  mapping(uint => BlogItem) public blogs;\n  mapping(uint => address[]) public likedUsers;\n  mapping(uint => Comment[]) public comments;\n\n  struct BlogItem {\n    uint id;\n    string hash;\n    string description;\n    uint likesCount;\n    address payable author;\n    string fileType;\n  }\n\n  struct Comment {\n    address author;\n    string content;\n  }\n\n  event BlogUpdated(\n    uint id,\n    string hash,\n    string description,\n    uint likesCount,\n    address payable author,\n    Comment[] comments,\n    string fileType\n  );\n\n  event BlogLiked(\n    uint id,\n    uint likesCount,\n    address payable author\n  );\n\n  event BlogCommented(\n    uint id,\n    Comment[] comments\n  );\n\n\n\n  constructor() public {\n    name = \"Blog\";\n  }\n\n\n  function uploadBlog(string memory _fileHash, string memory _description,string memory _fileType) public {\n    require(bytes(_fileHash).length > 0);\n    require(bytes(_description).length > 0);\n    require(msg.sender!=address(0));\n    require(bytes(_fileType).length > 0);\n    blogCount ++;\n    blogs[blogCount] = BlogItem(blogCount, _fileHash, _description, 0, msg.sender,_fileType);\n    emit BlogUpdated(blogCount, _fileHash, _description, 0, msg.sender,comments[blogCount],_fileType);\n  }\n\n  function commentBlog(uint _id,string memory _comment) public {\n    require(_id > 0 && _id <= blogCount);\n    require(bytes(_comment).length > 0);\n    //Comment[] storage _commentArray = comments[_id];\n    // uint len = _commentArray.length;\n    // _commentArray[len] = Comment(msg.sender,_comment);\n    // comments[_id] = _commentArray;\n    comments[_id].push(Comment(msg.sender,_comment));\n    //comments[_id] = _commentArray;\n    emit BlogCommented(_id, comments[_id]);\n  }\n\n  function check(uint _id,address senderAddress) internal view returns(bool){\n    bool doesListContainElement = false;\n    for (uint i=0; i < likedUsers[_id].length; i++) {\n      if (senderAddress == likedUsers[_id][i]) {\n          doesListContainElement = true;\n          break;\n      }\n    } \n    return doesListContainElement;\n  }\n\n  function likeBlog(uint _id) public {\n    require(_id > 0 && _id <= blogCount);\n    require(!check(_id,msg.sender));\n    BlogItem memory _blog = blogs[_id];\n    _blog.likesCount = _blog.likesCount + 1;\n    blogs[_id] = _blog;\n    likedUsers[_id].push(msg.sender);\n    emit BlogLiked(blogCount,_blog.likesCount,msg.sender);\n  }\n\n}",
  "sourcePath": "/Users/I526737/Documents/Blockchain/src/contracts/Blog.sol",
  "compiler": {
    "name": "solc",
    "version": "0.5.16+commit.9c3226ce.Emscripten.clang"
  },
  "schemaVersion": "3.2.3",
  "updatedAt": "2022-11-29T04:52:21.494Z",
  "networkType": "ethereum",
  "devdoc": {
    "methods": {}
  },
  "userdoc": {
    "methods": {}
  }
}