{
  "contractName": "Blog",
  "abi": [
    {
      "inputs": [],
      "payable": false,
      "stateMutability": "nonpayable",
      "type": "constructor"
    },
    {
      "anonymous": false,
      "inputs": [
        {
          "indexed": false,
          "internalType": "uint256",
          "name": "id",
          "type": "uint256"
        },
        {
          "components": [
            {
              "internalType": "address",
              "name": "author",
              "type": "address"
            },
            {
              "internalType": "string",
              "name": "content",
              "type": "string"
            }
          ],
          "indexed": false,
          "internalType": "struct Blog.Comment[]",
          "name": "comments",
          "type": "tuple[]"
        }
      ],
      "name": "BlogCommented",
      "type": "event"
    },
    {
      "anonymous": false,
      "inputs": [
        {
          "indexed": false,
          "internalType": "uint256",
          "name": "id",
          "type": "uint256"
        },
        {
          "indexed": false,
          "internalType": "uint256",
          "name": "likesCount",
          "type": "uint256"
        },
        {
          "indexed": false,
          "internalType": "address payable",
          "name": "author",
          "type": "address"
        }
      ],
      "name": "BlogLiked",
      "type": "event"
    },
    {
      "anonymous": false,
      "inputs": [
        {
          "indexed": false,
          "internalType": "uint256",
          "name": "id",
          "type": "uint256"
        },
        {
          "indexed": false,
          "internalType": "string",
          "name": "hash",
          "type": "string"
        },
        {
          "indexed": false,
          "internalType": "string",
          "name": "description",
          "type": "string"
        },
        {
          "indexed": false,
          "internalType": "uint256",
          "name": "likesCount",
          "type": "uint256"
        },
        {
          "indexed": false,
          "internalType": "address payable",
          "name": "author",
          "type": "address"
        },
        {
          "components": [
            {
              "internalType": "address",
              "name": "author",
              "type": "address"
            },
            {
              "internalType": "string",
              "name": "content",
              "type": "string"
            }
          ],
          "indexed": false,
          "internalType": "struct Blog.Comment[]",
          "name": "comments",
          "type": "tuple[]"
        },
        {
          "indexed": false,
          "internalType": "string",
          "name": "fileType",
          "type": "string"
        }
      ],
      "name": "BlogUpdated",
      "type": "event"
    },
    {
      "constant": true,
      "inputs": [],
      "name": "blogCount",
      "outputs": [
        {
          "internalType": "uint256",
          "name": "",
          "type": "uint256"
        }
      ],
      "payable": false,
      "stateMutability": "view",
      "type": "function"
    },
    {
      "constant": true,
      "inputs": [
        {
          "internalType": "uint256",
          "name": "",
          "type": "uint256"
        }
      ],
      "name": "blogs",
      "outputs": [
        {
          "internalType": "uint256",
          "name": "id",
          "type": "uint256"
        },
        {
          "internalType": "string",
          "name": "hash",
          "type": "string"
        },
        {
          "internalType": "string",
          "name": "description",
          "type": "string"
        },
        {
          "internalType": "uint256",
          "name": "likesCount",
          "type": "uint256"
        },
        {
          "internalType": "address payable",
          "name": "author",
          "type": "address"
        },
        {
          "internalType": "string",
          "name": "fileType",
          "type": "string"
        }
      ],
      "payable": false,
      "stateMutability": "view",
      "type": "function"
    },
    {
      "constant": true,
      "inputs": [
        {
          "internalType": "uint256",
          "name": "",
          "type": "uint256"
        },
        {
          "internalType": "uint256",
          "name": "",
          "type": "uint256"
        }
      ],
      "name": "comments",
      "outputs": [
        {
          "internalType": "address",
          "name": "author",
          "type": "address"
        },
        {
          "internalType": "string",
          "name": "content",
          "type": "string"
        }
      ],
      "payable": false,
      "stateMutability": "view",
      "type": "function"
    },
    {
      "constant": true,
      "inputs": [
        {
          "internalType": "uint256",
          "name": "",
          "type": "uint256"
        },
        {
          "internalType": "uint256",
          "name": "",
          "type": "uint256"
        }
      ],
      "name": "likedUsers",
      "outputs": [
        {
          "internalType": "address",
          "name": "",
          "type": "address"
        }
      ],
      "payable": false,
      "stateMutability": "view",
      "type": "function"
    },
    {
      "constant": true,
      "inputs": [],
      "name": "name",
      "outputs": [
        {
          "internalType": "string",
          "name": "",
          "type": "string"
        }
      ],
      "payable": false,
      "stateMutability": "view",
      "type": "function"
    },
    {
      "constant": false,
      "inputs": [
        {
          "internalType": "string",
          "name": "_fileHash",
          "type": "string"
        },
        {
          "internalType": "string",
          "name": "_description",
          "type": "string"
        },
        {
          "internalType": "string",
          "name": "_fileType",
          "type": "string"
        }
      ],
      "name": "uploadBlog",
      "outputs": [],
      "payable": false,
      "stateMutability": "nonpayable",
      "type": "function"
    },
    {
      "constant": false,
      "inputs": [
        {
          "internalType": "uint256",
          "name": "_id",
          "type": "uint256"
        },
        {
          "internalType": "string",
          "name": "_comment",
          "type": "string"
        }
      ],
      "name": "commentBlog",
      "outputs": [],
      "payable": false,
      "stateMutability": "nonpayable",
      "type": "function"
    },
    {
      "constant": true,
      "inputs": [
        {
          "internalType": "uint256",
          "name": "_id",
          "type": "uint256"
        }
      ],
      "name": "retrieveComments",
      "outputs": [
        {
          "components": [
            {
              "internalType": "address",
              "name": "author",
              "type": "address"
            },
            {
              "internalType": "string",
              "name": "content",
              "type": "string"
            }
          ],
          "internalType": "struct Blog.Comment[]",
          "name": "",
          "type": "tuple[]"
        }
      ],
      "payable": false,
      "stateMutability": "view",
      "type": "function"
    },
    {
      "constant": false,
      "inputs": [
        {
          "internalType": "uint256",
          "name": "_id",
          "type": "uint256"
        }
      ],
      "name": "likeBlog",
      "outputs": [],
      "payable": false,
      "stateMutability": "nonpayable",
      "type": "function"
    }
  ],
  "bytecode": "0x60806040526040518060400160405280600481526020017f626c6f67000000000000000000000000000000000000000000000000000000008152506000908051906020019062000051929190620000b9565b5060006001553480156200006457600080fd5b506040518060400160405280600481526020017f426c6f670000000000000000000000000000000000000000000000000000000081525060009080519060200190620000b2929190620000b9565b5062000168565b828054600181600116156101000203166002900490600052602060002090601f016020900481019282601f10620000fc57805160ff19168380011785556200012d565b828001600101855582156200012d579182015b828111156200012c5782518255916020019190600101906200010f565b5b5090506200013c919062000140565b5090565b6200016591905b808211156200016157600081600090555060010162000147565b5090565b90565b6119e680620001786000396000f3fe608060405234801561001057600080fd5b50600436106100935760003560e01c80634db64df4116100665780634db64df41461011e57806380f052d81461014e578063e882429914610183578063eb22e055146101a1578063fc6c776f146101bd57610093565b806306fdde031461009857806321a401c5146100b657806331825f30146100e65780634308c44a14610102575b600080fd5b6100a06101ee565b6040516100ad91906115e1565b60405180910390f35b6100d060048036036100cb919081019061119f565b61028c565b6040516100dd91906115bf565b60405180910390f35b61010060048036036100fb919081019061119f565b610411565b005b61011c60048036036101179190810190611108565b61084e565b005b6101386004803603610133919081019061121c565b610a33565b6040516101459190611574565b60405180910390f35b6101686004803603610163919081019061119f565b610a7e565b60405161017a969594939291906116d9565b60405180910390f35b61018b610ca2565b6040516101989190611603565b60405180910390f35b6101bb60048036036101b691908101906111c8565b610ca8565b005b6101d760048036036101d2919081019061121c565b610df0565b6040516101e592919061158f565b60405180910390f35b60008054600181600116156101000203166002900480601f0160208091040260200160405190810160405280929190818152602001828054600181600116156101000203166002900480156102845780601f1061025957610100808354040283529160200191610284565b820191906000526020600020905b81548152906001019060200180831161026757829003601f168201915b505050505081565b60606000821180156102a057506001548211155b6102a957600080fd5b60046000838152602001908152602001600020805480602002602001604051908101604052809291908181526020016000905b8282101561040657838290600052602060002090600202016040518060400160405290816000820160009054906101000a900473ffffffffffffffffffffffffffffffffffffffff1673ffffffffffffffffffffffffffffffffffffffff1673ffffffffffffffffffffffffffffffffffffffff168152602001600182018054600181600116156101000203166002900480601f0160208091040260200160405190810160405280929190818152602001828054600181600116156101000203166002900480156103ee5780601f106103c3576101008083540402835291602001916103ee565b820191906000526020600020905b8154815290600101906020018083116103d157829003601f168201915b505050505081525050815260200190600101906102dc565b505050509050919050565b60008111801561042357506001548111155b61042c57600080fd5b6104368133610ee6565b1561044057600080fd5b610448610fae565b600260008381526020019081526020016000206040518060c001604052908160008201548152602001600182018054600181600116156101000203166002900480601f0160208091040260200160405190810160405280929190818152602001828054600181600116156101000203166002900480156105095780601f106104de57610100808354040283529160200191610509565b820191906000526020600020905b8154815290600101906020018083116104ec57829003601f168201915b50505050508152602001600282018054600181600116156101000203166002900480601f0160208091040260200160405190810160405280929190818152602001828054600181600116156101000203166002900480156105ab5780601f10610580576101008083540402835291602001916105ab565b820191906000526020600020905b81548152906001019060200180831161058e57829003601f168201915b50505050508152602001600382015481526020016004820160009054906101000a900473ffffffffffffffffffffffffffffffffffffffff1673ffffffffffffffffffffffffffffffffffffffff1673ffffffffffffffffffffffffffffffffffffffff168152602001600582018054600181600116156101000203166002900480601f0160208091040260200160405190810160405280929190818152602001828054600181600116156101000203166002900480156106ad5780601f10610682576101008083540402835291602001916106ad565b820191906000526020600020905b81548152906001019060200180831161069057829003601f168201915b505050505081525050905060018160600151018160600181815250508060026000848152602001908152602001600020600082015181600001556020820151816001019080519060200190610703929190610ffa565b506040820151816002019080519060200190610720929190610ffa565b506060820151816003015560808201518160040160006101000a81548173ffffffffffffffffffffffffffffffffffffffff021916908373ffffffffffffffffffffffffffffffffffffffff16021790555060a082015181600501908051906020019061078e929190610ffa565b50905050600360008381526020019081526020016000203390806001815401808255809150509060018203906000526020600020016000909192909190916101000a81548173ffffffffffffffffffffffffffffffffffffffff021916908373ffffffffffffffffffffffffffffffffffffffff160217905550507f078fb7d2d246dd5c30cd5f79150744cc46ddab1e9f56372306e88856790b1b646001548260600151336040516108429392919061174f565b60405180910390a15050565b600083511161085c57600080fd5b600082511161086a57600080fd5b600073ffffffffffffffffffffffffffffffffffffffff163373ffffffffffffffffffffffffffffffffffffffff1614156108a457600080fd5b60008151116108b257600080fd5b6001600081548092919060010191905055506040518060c001604052806001548152602001848152602001838152602001600081526020013373ffffffffffffffffffffffffffffffffffffffff16815260200182815250600260006001548152602001908152602001600020600082015181600001556020820151816001019080519060200190610945929190610ffa565b506040820151816002019080519060200190610962929190610ffa565b506060820151816003015560808201518160040160006101000a81548173ffffffffffffffffffffffffffffffffffffffff021916908373ffffffffffffffffffffffffffffffffffffffff16021790555060a08201518160050190805190602001906109d0929190610ffa565b509050507febb4721a7e91319deab544415ece2c4513e31b9a54a98bc58cb79d13d3d63952600154848460003360046000600154815260200190815260200160002087604051610a26979695949392919061164e565b60405180910390a1505050565b60036020528160005260406000208181548110610a4c57fe5b906000526020600020016000915091509054906101000a900473ffffffffffffffffffffffffffffffffffffffff1681565b6002602052806000526040600020600091509050806000015490806001018054600181600116156101000203166002900480601f016020809104026020016040519081016040528092919081815260200182805460018160011615610100020316600290048015610b305780601f10610b0557610100808354040283529160200191610b30565b820191906000526020600020905b815481529060010190602001808311610b1357829003601f168201915b505050505090806002018054600181600116156101000203166002900480601f016020809104026020016040519081016040528092919081815260200182805460018160011615610100020316600290048015610bce5780601f10610ba357610100808354040283529160200191610bce565b820191906000526020600020905b815481529060010190602001808311610bb157829003601f168201915b5050505050908060030154908060040160009054906101000a900473ffffffffffffffffffffffffffffffffffffffff1690806005018054600181600116156101000203166002900480601f016020809104026020016040519081016040528092919081815260200182805460018160011615610100020316600290048015610c985780601f10610c6d57610100808354040283529160200191610c98565b820191906000526020600020905b815481529060010190602001808311610c7b57829003601f168201915b5050505050905086565b60015481565b600082118015610cba57506001548211155b610cc357600080fd5b6000815111610cd157600080fd5b6004600083815260200190815260200160002060405180604001604052803373ffffffffffffffffffffffffffffffffffffffff168152602001838152509080600181540180825580915050906001820390600052602060002090600202016000909192909190915060008201518160000160006101000a81548173ffffffffffffffffffffffffffffffffffffffff021916908373ffffffffffffffffffffffffffffffffffffffff1602179055506020820151816001019080519060200190610d9d929190610ffa565b505050507f8d145b93d9ce69758117b847010305c6203e15545dee55bedaea72365dcc9f618260046000858152602001908152602001600020604051610de492919061161e565b60405180910390a15050565b60046020528160005260406000208181548110610e0957fe5b9060005260206000209060020201600091509150508060000160009054906101000a900473ffffffffffffffffffffffffffffffffffffffff1690806001018054600181600116156101000203166002900480601f016020809104026020016040519081016040528092919081815260200182805460018160011615610100020316600290048015610edc5780601f10610eb157610100808354040283529160200191610edc565b820191906000526020600020905b815481529060010190602001808311610ebf57829003601f168201915b5050505050905082565b6000806000905060008090505b6003600086815260200190815260200160002080549050811015610fa357600360008681526020019081526020016000208181548110610f2f57fe5b9060005260206000200160009054906101000a900473ffffffffffffffffffffffffffffffffffffffff1673ffffffffffffffffffffffffffffffffffffffff168473ffffffffffffffffffffffffffffffffffffffff161415610f965760019150610fa3565b8080600101915050610ef3565b508091505092915050565b6040518060c0016040528060008152602001606081526020016060815260200160008152602001600073ffffffffffffffffffffffffffffffffffffffff168152602001606081525090565b828054600181600116156101000203166002900490600052602060002090601f016020900481019282601f1061103b57805160ff1916838001178555611069565b82800160010185558215611069579182015b8281111561106857825182559160200191906001019061104d565b5b509050611076919061107a565b5090565b61109c91905b80821115611098576000816000905550600101611080565b5090565b90565b600082601f8301126110b057600080fd5b81356110c36110be826117b3565b611786565b915080825260208301602083018583830111156110df57600080fd5b6110ea838284611912565b50505092915050565b6000813590506111028161198c565b92915050565b60008060006060848603121561111d57600080fd5b600084013567ffffffffffffffff81111561113757600080fd5b6111438682870161109f565b935050602084013567ffffffffffffffff81111561116057600080fd5b61116c8682870161109f565b925050604084013567ffffffffffffffff81111561118957600080fd5b6111958682870161109f565b9150509250925092565b6000602082840312156111b157600080fd5b60006111bf848285016110f3565b91505092915050565b600080604083850312156111db57600080fd5b60006111e9858286016110f3565b925050602083013567ffffffffffffffff81111561120657600080fd5b6112128582860161109f565b9150509250929050565b6000806040838503121561122f57600080fd5b600061123d858286016110f3565b925050602061124e858286016110f3565b9150509250929050565b600061126483836114df565b905092915050565b6000611278838361151c565b905092915050565b611289816118c4565b82525050565b611298816118b2565b82525050565b6112a7816118b2565b82525050565b60006112b882611819565b6112c2818561185f565b9350836020820285016112d4856117df565b8060005b8581101561131057848403895281516112f18582611258565b94506112fc83611845565b925060208a019950506001810190506112d8565b50829750879550505050505092915050565b600061132d82611824565b611337818561185f565b935083602082028501611349856117ef565b8060005b8581101561138457848403895281611365858261126c565b945061137083611852565b925060208a0199505060018101905061134d565b50829750879550505050505092915050565b61139f81611900565b82525050565b60006113b08261183a565b6113ba8185611881565b93506113ca818560208601611921565b6113d38161196e565b840191505092915050565b60006113e98261182f565b6113f38185611870565b9350611403818560208601611921565b61140c8161196e565b840191505092915050565b60006114228261182f565b61142c8185611881565b935061143c818560208601611921565b6114458161196e565b840191505092915050565b60008154600181166000811461146d5760018114611493576114d7565b607f600283041661147e8187611870565b955060ff1983168652602086019350506114d7565b600282046114a18187611870565b95506114ac85611804565b60005b828110156114ce578154818901526001820191506020810190506114af565b80880195505050505b505092915050565b60006040830160008301516114f7600086018261128f565b506020830151848203602086015261150f82826113de565b9150508091505092915050565b600060408301600080840154905061153381611954565b611540600087018261128f565b506001840185830360208701526115578382611450565b925050819250505092915050565b61156e816118f6565b82525050565b6000602082019050611589600083018461129e565b92915050565b60006040820190506115a4600083018561129e565b81810360208301526115b68184611417565b90509392505050565b600060208201905081810360008301526115d981846112ad565b905092915050565b600060208201905081810360008301526115fb8184611417565b905092915050565b60006020820190506116186000830184611565565b92915050565b60006040820190506116336000830185611565565b81810360208301526116458184611322565b90509392505050565b600060e082019050611663600083018a611565565b818103602083015261167581896113a5565b9050818103604083015261168981886113a5565b90506116986060830187611396565b6116a56080830186611280565b81810360a08301526116b78185611322565b905081810360c08301526116cb81846113a5565b905098975050505050505050565b600060c0820190506116ee6000830189611565565b81810360208301526117008188611417565b905081810360408301526117148187611417565b90506117236060830186611565565b6117306080830185611280565b81810360a08301526117428184611417565b9050979650505050505050565b60006060820190506117646000830186611565565b6117716020830185611565565b61177e6040830184611280565b949350505050565b6000604051905081810181811067ffffffffffffffff821117156117a957600080fd5b8060405250919050565b600067ffffffffffffffff8211156117ca57600080fd5b601f19601f8301169050602081019050919050565b6000819050602082019050919050565b60008190508160005260206000209050919050565b60008190508160005260206000209050919050565b600081519050919050565b600081549050919050565b600081519050919050565b600081519050919050565b6000602082019050919050565b6000600282019050919050565b600082825260208201905092915050565b600082825260208201905092915050565b600082825260208201905092915050565b600073ffffffffffffffffffffffffffffffffffffffff82169050919050565b60006118bd826118d6565b9050919050565b60006118cf826118d6565b9050919050565b600073ffffffffffffffffffffffffffffffffffffffff82169050919050565b6000819050919050565b600061190b826118f6565b9050919050565b82818337600083830152505050565b60005b8381101561193f578082015181840152602081019050611924565b8381111561194e576000848401525b50505050565b60006119676119628361197f565b611892565b9050919050565b6000601f19601f8301169050919050565b60008160001c9050919050565b611995816118f6565b81146119a057600080fd5b5056fea365627a7a72315820aea93bfce97a5ac9581ff5081397d5d7a01b3443aaad16340164da8885d4e8ca6c6578706572696d656e74616cf564736f6c63430005100040",
  "source": "pragma solidity ^0.5.0;\npragma experimental ABIEncoderV2;\n\n\ncontract Blog {\n  string public name = \"blog\";\n\n  uint public blogCount = 0;\n  mapping(uint => BlogItem) public blogs;\n  mapping(uint => address[]) public likedUsers;\n  mapping(uint => Comment[]) public comments;\n\n  struct BlogItem {\n    uint id;\n    string hash;\n    string description;\n    uint likesCount;\n    address payable author;\n    string fileType;\n  }\n\n  struct Comment {\n    address author;\n    string content;\n  }\n\n  event BlogUpdated(\n    uint id,\n    string hash,\n    string description,\n    uint likesCount,\n    address payable author,\n    Comment[] comments,\n    string fileType\n  );\n\n  event BlogLiked(\n    uint id,\n    uint likesCount,\n    address payable author\n  );\n\n  event BlogCommented(\n    uint id,\n    Comment[] comments\n  );\n\n\n\n  constructor() public {\n    name = \"Blog\";\n  }\n\n\n  function uploadBlog(string memory _fileHash, string memory _description,string memory _fileType) public {\n    require(bytes(_fileHash).length > 0);\n    require(bytes(_description).length > 0);\n    require(msg.sender!=address(0));\n    require(bytes(_fileType).length > 0);\n    blogCount ++;\n    blogs[blogCount] = BlogItem(blogCount, _fileHash, _description, 0, msg.sender,_fileType);\n    emit BlogUpdated(blogCount, _fileHash, _description, 0, msg.sender,comments[blogCount],_fileType);\n  }\n\n  function commentBlog(uint _id,string memory _comment) public {\n    require(_id > 0 && _id <= blogCount);\n    require(bytes(_comment).length > 0);\n    comments[_id].push(Comment(msg.sender,_comment));\n    emit BlogCommented(_id, comments[_id]);\n  }\n\n  function retrieveComments(uint _id) public view returns (Comment[] memory){\n    require(_id > 0 && _id <= blogCount);\n    return comments[_id];\n  }\n\n  function check(uint _id,address senderAddress) internal view returns(bool){\n    bool doesListContainElement = false;\n    for (uint i=0; i < likedUsers[_id].length; i++) {\n      if (senderAddress == likedUsers[_id][i]) {\n          doesListContainElement = true;\n          break;\n      }\n    } \n    return doesListContainElement;\n  }\n\n  function likeBlog(uint _id) public {\n    require(_id > 0 && _id <= blogCount);\n    require(!check(_id,msg.sender));\n    BlogItem memory _blog = blogs[_id];\n    _blog.likesCount = _blog.likesCount + 1;\n    blogs[_id] = _blog;\n    likedUsers[_id].push(msg.sender);\n    emit BlogLiked(blogCount,_blog.likesCount,msg.sender);\n  }\n\n}",
  "sourcePath": "/Users/I526737/Documents/Blockchain/src/contracts/Blog.sol",
  "compiler": {
    "name": "solc",
    "version": "0.5.16+commit.9c3226ce.Emscripten.clang"
  },
  "schemaVersion": "3.2.3",
  "updatedAt": "2022-11-29T04:56:59.432Z",
  "networkType": "ethereum",
  "devdoc": {
    "methods": {}
  },
  "userdoc": {
    "methods": {}
  }
}